{
  "_format": "hh-sol-artifact-1",
  "contractName": "BancorConverterRegistry",
  "sourceName": "contracts/BancorConverterRegistry.sol",
  "abi": [
    {
      "inputs": [],
      "stateMutability": "nonpayable",
      "type": "constructor"
    },
    {
      "anonymous": false,
      "inputs": [
        {
          "indexed": true,
          "internalType": "address",
          "name": "_token",
          "type": "address"
        },
        {
          "indexed": false,
          "internalType": "address",
          "name": "_address",
          "type": "address"
        }
      ],
      "name": "ConverterAddition",
      "type": "event"
    },
    {
      "anonymous": false,
      "inputs": [
        {
          "indexed": true,
          "internalType": "address",
          "name": "_token",
          "type": "address"
        },
        {
          "indexed": false,
          "internalType": "address",
          "name": "_address",
          "type": "address"
        }
      ],
      "name": "ConverterRemoval",
      "type": "event"
    },
    {
      "anonymous": false,
      "inputs": [
        {
          "indexed": true,
          "internalType": "address",
          "name": "_prevOwner",
          "type": "address"
        },
        {
          "indexed": true,
          "internalType": "address",
          "name": "_newOwner",
          "type": "address"
        }
      ],
      "name": "OwnerUpdate",
      "type": "event"
    },
    {
      "inputs": [],
      "name": "acceptOwnership",
      "outputs": [],
      "stateMutability": "nonpayable",
      "type": "function"
    },
    {
      "inputs": [
        {
          "internalType": "address",
          "name": "_token",
          "type": "address"
        },
        {
          "internalType": "uint32",
          "name": "_index",
          "type": "uint32"
        }
      ],
      "name": "converterAddress",
      "outputs": [
        {
          "internalType": "address",
          "name": "",
          "type": "address"
        }
      ],
      "stateMutability": "view",
      "type": "function"
    },
    {
      "inputs": [
        {
          "internalType": "address",
          "name": "_token",
          "type": "address"
        }
      ],
      "name": "converterCount",
      "outputs": [
        {
          "internalType": "uint256",
          "name": "",
          "type": "uint256"
        }
      ],
      "stateMutability": "view",
      "type": "function"
    },
    {
      "inputs": [],
      "name": "newOwner",
      "outputs": [
        {
          "internalType": "address",
          "name": "",
          "type": "address"
        }
      ],
      "stateMutability": "view",
      "type": "function"
    },
    {
      "inputs": [],
      "name": "owner",
      "outputs": [
        {
          "internalType": "address",
          "name": "",
          "type": "address"
        }
      ],
      "stateMutability": "view",
      "type": "function"
    },
    {
      "inputs": [
        {
          "internalType": "address",
          "name": "_token",
          "type": "address"
        },
        {
          "internalType": "address",
          "name": "_converter",
          "type": "address"
        }
      ],
      "name": "registerConverter",
      "outputs": [],
      "stateMutability": "nonpayable",
      "type": "function"
    },
    {
      "inputs": [
        {
          "internalType": "address",
          "name": "_converter",
          "type": "address"
        }
      ],
      "name": "tokenAddress",
      "outputs": [
        {
          "internalType": "address",
          "name": "",
          "type": "address"
        }
      ],
      "stateMutability": "view",
      "type": "function"
    },
    {
      "inputs": [],
      "name": "tokenCount",
      "outputs": [
        {
          "internalType": "uint256",
          "name": "",
          "type": "uint256"
        }
      ],
      "stateMutability": "view",
      "type": "function"
    },
    {
      "inputs": [
        {
          "internalType": "uint256",
          "name": "",
          "type": "uint256"
        }
      ],
      "name": "tokens",
      "outputs": [
        {
          "internalType": "address",
          "name": "",
          "type": "address"
        }
      ],
      "stateMutability": "view",
      "type": "function"
    },
    {
      "inputs": [
        {
          "internalType": "address",
          "name": "_newOwner",
          "type": "address"
        }
      ],
      "name": "transferOwnership",
      "outputs": [],
      "stateMutability": "nonpayable",
      "type": "function"
    },
    {
      "inputs": [
        {
          "internalType": "address",
          "name": "_token",
          "type": "address"
        },
        {
          "internalType": "uint32",
          "name": "_index",
          "type": "uint32"
        }
      ],
      "name": "unregisterConverter",
      "outputs": [],
      "stateMutability": "nonpayable",
      "type": "function"
    }
  ],
  "bytecode": "0x608060405234801561001057600080fd5b50600080546001600160a01b03191633179055610846806100326000396000f3fe608060405234801561001057600080fd5b50600436106100a95760003560e01c80639884e801116100715780639884e801146101215780639f181b5e1461014d578063cd9d4d661461015f578063d26a8d2e14610188578063d4ee1d901461019b578063f2fde38b146101ae57600080fd5b806338cb066f146100ae5780634f64b2be146100c357806379ba5097146100f35780638da5cb5b146100fb57806390ab31061461010e575b600080fd5b6100c16100bc3660046106d3565b6101c1565b005b6100d66100d1366004610713565b6103cd565b6040516001600160a01b0390911681526020015b60405180910390f35b6100c16103f7565b6000546100d6906001600160a01b031681565b6100d661011c3660046106d3565b610472565b6100d661012f36600461072c565b6001600160a01b039081166000908152600460205260409020541690565b6005545b6040519081526020016100ea565b61015161016d36600461072c565b6001600160a01b031660009081526003602052604090205490565b6100c161019636600461074e565b6104ed565b6001546100d6906001600160a01b031681565b6100c16101bc36600461072c565b610663565b6000546001600160a01b031633146101d857600080fd5b816001600160a01b0381166101ec57600080fd5b6001600160a01b03831660009081526003602052604090205463ffffffff8316811161021757600080fd5b6001600160a01b0384166000908152600360205260408120805463ffffffff861690811061024757610247610781565b60009182526020822001546001600160a01b031691506102688560016107ad565b90505b828163ffffffff161015610323576001600160a01b0386166000908152600360205260409020805463ffffffff83169081106102a9576102a9610781565b60009182526020808320909101546001600160a01b038981168452600390925260409092209116906102dc6001846107d5565b63ffffffff16815481106102f2576102f2610781565b600091825260209091200180546001600160a01b0319166001600160a01b039290921691909117905560010161026b565b506001600160a01b038516600090815260036020526040902080548061034b5761034b6107fa565b60008281526020808220600019908401810180546001600160a01b031990811690915593019093556001600160a01b0384811680835260048552604092839020805490941690935590519182528716917fc3b25a6c3b7509edde0f2e6cc317b5820a901fa82ac554709206e1d7237fe294910160405180910390a25050505050565b600581815481106103dd57600080fd5b6000918252602090912001546001600160a01b0316905081565b6001546001600160a01b0316331461040e57600080fd5b600154600080546040516001600160a01b0393841693909116917f343765429aea5a34b3ff6a3785a98a5abb2597aca87bfbb58632c173d585373a91a360018054600080546001600160a01b03199081166001600160a01b03841617909155169055565b6001600160a01b03821660009081526003602052604081205463ffffffff83161061049f575060006104e7565b6001600160a01b0383166000908152600360205260409020805463ffffffff84169081106104cf576104cf610781565b6000918252602090912001546001600160a01b031690505b92915050565b6000546001600160a01b0316331461050457600080fd5b816001600160a01b03811661051857600080fd5b816001600160a01b03811661052c57600080fd5b6001600160a01b03838116600090815260046020526040902054161561055157600080fd5b6001600160a01b03841660009081526002602052604090205460ff166105d5576005805460018082019092557f036b6384b5eca791c62761152d0c79bb0604c104a5fb6f4eb0703f3154bb3db00180546001600160a01b0319166001600160a01b0387169081179091556000908152600260205260409020805460ff191690911790555b6001600160a01b03848116600081815260036020908152604080832080546001810182559084528284200180549589166001600160a01b03199687168117909155808452600483529281902080549095168417909455925190815290917f229aec2ec4b21e700d6daf13a894e7b38c18b844b021f2eee263f04af3ea6f00910160405180910390a250505050565b6000546001600160a01b0316331461067a57600080fd5b6000546001600160a01b039081169082160361069557600080fd5b600180546001600160a01b0319166001600160a01b0392909216919091179055565b80356001600160a01b03811681146106ce57600080fd5b919050565b600080604083850312156106e657600080fd5b6106ef836106b7565b9150602083013563ffffffff8116811461070857600080fd5b809150509250929050565b60006020828403121561072557600080fd5b5035919050565b60006020828403121561073e57600080fd5b610747826106b7565b9392505050565b6000806040838503121561076157600080fd5b61076a836106b7565b9150610778602084016106b7565b90509250929050565b634e487b7160e01b600052603260045260246000fd5b634e487b7160e01b600052601160045260246000fd5b600063ffffffff8083168185168083038211156107cc576107cc610797565b01949350505050565b600063ffffffff838116908316818110156107f2576107f2610797565b039392505050565b634e487b7160e01b600052603160045260246000fdfea2646970667358221220046d0b9ab9e32178ae5f5af4329b695684fbefe467a26453c5368cadab59268764736f6c634300080f0033",
  "linkReferences": {},
  "deployedLinkReferences": {}
}